:060B040068656C6C6F00D7
:040B0A0002250000C0
:100ACF00120ABB7BFF7A0B79047D017F01120A4763
:020ADF0080F1A4
:100AA600EF1FAC0670011E4C600A7D027CEFDCFE77
:040AB600DDFC80ECF7
:010ABA002219
:060AE100C2A58F80D2A720
:080AE7007F027EEFDEFEDFFC62
:010AEF0022E4
:0A0AF000C2A6120AE1C2A7020AE73B
:100A6A00CFCDCFCECCCE12083F7C007D0A12083FF4
:040A7A00ED2430FF38
:0A0A7E00D2A6120AE1C2A7020AE79D
:100A8800AE07EEFB7A0064017004ED148009EB6494
:0E0A9800024A7009ED243F4480FF120AF0224A
:100ABB007F38120AF07F0C120AF07F06120AF07FC1
:040ACB0001020AF02A
:0A0AFA00AC03120A88AF04020A7E62
:060A47008B228A238924A2
:100A4D00120A88E4FDAB22AA23A9248D82758300A6
:0C0A5D00120800FF6006120A7E0D80E9FE
:010A6900226A
:0A09F200EF24FFFDEE34FFFC7F0A46
:0809FC008E1E8F1F8C208D213F
:100A04007F017E00E4FBEBC39521E5206480F8744C
:0E0A14008098500AAC1EAD1F12082D0B80E812
:010A220022B1
:040A23008A118B1297
:100A2700120A88AA13EAFF7E00D394007480948088
:0F0A3700400D1209F2AC11AD12120A6A1A80E6D4
:010A4600228D
:04096B008B828A836E
:10096F00120A88C3E58364809480400D7F2B120A9E
:10097F007E85830D85820E80107F2D120A7EC3E443
:10098F009582F50EE49583F50DAA0CEAFF7E00D350
:10099F00940074809480400D1209F2AC0DAD0E12CC
:0509AF000A6A1A80E64F
:0109B4002220
:040920008A168B1791
:10092400120A88AA18EAD39400748094804037EAA3
:1009340024FFFDE434FFFC7F107E001209FCAC169A
:10094400AD17CFCDCFCECCCE12083FEF540FFEC3A0
:10095400940A74809480EE5004243080022437FF7B
:06096400120A7E1A80BF9A
:01096A00226A
:0409B5008A1B8B1CF2
:1009B900120A88AA1DEAFF7E00D3940074809480ED
:1009C9004026EF24FFFDEE34FFFC7F021209FCAC48
:1009D9001BAD1CCFCDCFCECCCE12083FEF54012496
:0809E90030FF120A7E1A80CDD6
:0109F10022E3
:030000000208945F
:0C089400787FE4F6D8FD7581260208DBB1
:10080000BB010CE58229F582E5833AF583E02250AD
:1008100006E92582F8E622BBFE06E92582F8E222F7
:0D082000E58229F582E5833AF583E4932211
:10082D00EF8DF0A4A8F0CF8CF0A428CE8DF0A42EDF
:02083D00FE2299
:10083F00BC000BBE0029EF8DF084FFADF022E4CC9D
:10084F00F875F008EF2FFFEE33FEEC33FCEE9DEC66
:10085F00984005FCEE9DFE0FD5F0E9E4CEFD22EDAC
:10086F00F8F5F0EE8420D21CFEADF075F008EF2FF6
:10087F00FFED33FD4007985006D5F0F222C398FDE7
:05088F000FD5F0EA2284
:1008A000020ACFE493A3F8E493A34003F68001F295
:1008B00008DFF48029E493A3F85407240CC8C33359
:1008C000C4540F4420C8834004F456800146F6DF28
:1008D000E4800B0102040810204080900B0AE47EA3
:1008E000019360BCA3FF543F30E509541FFEE4931D
:1008F000A360010ECF54C025E060A840B8E493A3E4
:10090000FAE493A3F8E493A3C8C582C8CAC583CA0E
:10091000F0A3C8C582C8CAC583CADFE9DEE780BEC6
:010B0E0000E6
:00000001FF
