:100BBA00EF1FAC0670011E4C600A7D027CEFDCFE62
:040BCA00DDFC80ECE2
:010BCE002204
:060BE300C2A58F80D2A71D
:080BE9007F027EEFDEFEDFFC5F
:010BF10022E1
:0A0BFE00C2A6120BE3C2A7020BE926
:100B6700CFCDCFCECCCE1209C87C007D0A1209C8E2
:040B7700ED2430FF3A
:0A0B7B00D2A6120BE3C2A7020BE999
:100B8500AE07EEFB7A0064017004ED148009EB6496
:0E0B9500024A7009ED243F4480FF120BFE223D
:100BCF007F38120BFE7F0C120BFE7F06120BFE7F7F
:040BDF0001020BFE06
:0A0C0800AC03120B85AF04020B7B56
:060B44008B228A238924A4
:100B4A00120B85E4FDAB22AA23A9248D82758300AA
:0C0B5A00120989FF6006120B7B0D80E978
:010B6600226C
:0A0AEF00EF24FFFDEE34FFFC7F0A48
:080AF9008E1E8F1F8C208D2141
:100B01007F017E00E4FBEBC39521E5206480F8744E
:0E0B11008098500AAC1EAD1F1209B60B80E88A
:010B1F0022B3
:040B20008A118B1299
:100B2400120B85AA13EAFF7E00D39400748094808C
:0F0B3400400D120AEFAC11AD12120B671A80E6DA
:010B4300228F
:040A68008B828A8370
:100A6C00120B85C3E58364809480400D7F2B120BA1
:100A7C007B85830D85820E80107F2D120B7BC3E44A
:100A8C009582F50EE49583F50DAA0CEAFF7E00D352
:100A9C00940074809480400D120AEFAC0DAD0E12D0
:050AAC000B671A80E653
:010AB1002222
:040A1D008A168B1793
:100A2100120B85AA18EAD39400748094804037EAA7
:100A310024FFFDE434FFFC7F107E00120AF9AC169E
:100A4100AD17CFCDCFCECCCE1209C8EF540FFEC318
:100A5100940A74809480EE5004243080022437FF7D
:060A6100120B7B1A80BF9E
:010A6700226C
:040AB2008A1B8B1CF4
:100AB600120B85AA1DEAFF7E00D3940074809480F1
:100AC6004026EF24FFFDEE34FFFC7F02120AF9AC4C
:100AD6001BAD1CCFCDCFCECCCE1209C8EF5401240E
:080AE60030FF120B7B1A80CDDA
:010AEE0022E5
:100BA30053877F75985053890F438920758BFA7546
:070BB3008DFAC2ABD28E22C5
:080C1C008F993099FDC2992265
:0A0C1200120BA37F66120C1C80FE7B
:10080000E4F5257590FFC2932097137F14FE120B19
:10081000BA3097FD7F147E00120BBA752501209621
:10082000147F147E00120BBA3096FD7F147E0012E6
:100830000BBA7525052095147F147E00120BBA3073
:1008400095FD7F147E00120BBA7525092094147F44
:10085000147E00120BBA3094FD7F147E00120BBA86
:1008600075250D7590FFC2922097147F147E00129B
:100870000BBA3097FD7F147E00120BBA752502204B
:1008800096147F147E00120BBA3096FD7F147E0002
:10089000120BBA7525062095147F147E00120BBA30
:1008A0003095FD7F147E00120BBA75250A20941432
:1008B0007F147E00120BBA3094FD7F147E00120B61
:1008C000BA75250E7590FFC2912097147F147E0093
:1008D000120BBA3097FD7F147E00120BBA752503F8
:1008E0002096147F147E00120BBA3096FD7F147E82
:1008F00000120BBA7525072095147F147E00120B89
:10090000BA3095FD7F147E00120BBA75250B20942A
:10091000147F147E00120BBA3094FD7F147E0012F7
:100920000BBA75250F7590FFC2902097147F147E27
:1009300000120BBA3097FD7F147E00120BBA75259A
:10094000042096147F147E00120BBA3096FD7F149B
:100950007E00120BBA7525082095147F147E0012B4
:100960000BBA3095FD7F147E00120BBA75250C2052
:1009700094147F147E00120BBA3094FD7F147E0015
:08098000120BBA752510AF251A
:01098800224C
:03000000020BF2FE
:0C0BF200787FE4F6D8FD758125020C1216
:10098900BB010CE58229F582E5833AF583E0225023
:1009990006E92582F8E622BBFE06E92582F8E2226D
:0D09A900E58229F582E5833AF583E4932287
:1009B600EF8DF0A4A8F0CF8CF0A428CE8DF0A42E55
:0209C600FE220F
:1009C800BC000BBE0029EF8DF084FFADF022E4CC13
:1009D800F875F008EF2FFFEE33FEEC33FCEE9DECDC
:1009E800984005FCEE9DFE0FD5F0E9E4CEFD22ED22
:1009F800F8F5F0EE8420D21CFEADF075F008EF2F6C
:100A0800FFED33FD4007985006D5F0F222C398FD5C
:050A18000FD5F0EA22F9
:00000001FF
