:03000000020BF6FA
:0C0BF600787FE4F6D8FD758125020BA382
:100BBE00EF1FAC0670011E4C600A7D027CEFDCFE5E
:040BCE00DDFC80ECDE
:010BD2002200
:060BE700C2A58F80D2A719
:080BED007F027EEFDEFEDFFC5B
:010BF50022DD
:0A0C0200C2A6120BE7C2A7020BED19
:100B6700CFCDCFCECCCE1209C87C007D0A1209C8E2
:040B7700ED2430FF3A
:0A0B7B00D2A6120BE7C2A7020BED91
:100B8500AE07EEFB7A0064017004ED148009EB6496
:0E0B9500024A7009ED243F4480FF120C022238
:100BD3007F38120C027F0C120C027F06120C027F6C
:040BE30001020C02FD
:0A0C0C00AC03120B85AF04020B7B52
:060B44008B228A238924A4
:100B4A00120B85E4FDAB22AA23A9248D82758300AA
:0C0B5A00120989FF6006120B7B0D80E978
:010B6600226C
:0A0AEF00EF24FFFDEE34FFFC7F0A48
:080AF9008E0D8F0E8C0F8D1085
:100B01007F017E00E4FBEBC39510E50F6480F87470
:0E0B11008098500AAC0DAD0E1209B60B80E8AC
:010B1F0022B3
:040B20008A0A8B0BA7
:100B2400120B85AA0CEAFF7E00D394007480948093
:0F0B3400400D120AEFAC0AAD0B120B671A80E6E8
:010B4300228F
:040A68008B828A8370
:100A6C00120B85C3E58364809480400D7F2B120BA1
:100A7C007B85831685821780107F2D120B7BC3E438
:100A8C009582F517E49583F516AA15EAFF7E00D337
:100A9C00940074809480400D120AEFAC16AD1712BE
:050AAC000B671A80E653
:010AB1002222
:040A1D008A1A8B1B8B
:100A2100120B85AA1CEAD39400748094804037EAA3
:100A310024FFFDE434FFFC7F107E00120AF9AC1A9A
:100A4100AD1BCFCDCFCECCCE1209C8EF540FFEC314
:100A5100940A74809480EE5004243080022437FF7D
:060A6100120B7B1A80BF9E
:010A6700226C
:040AB2008A1F8B20EC
:100AB600120B85AA21EAFF7E00D3940074809480ED
:100AC6004026EF24FFFDEE34FFFC7F02120AF9AC4C
:100AD6001FAD20CFCDCFCECCCE1209C8EF54012406
:080AE60030FF120B7B1A80CDDA
:010AEE0022E5
:100BA300120BD31208008F25E52560F7FB7A007539
:0B0BB3000C027D017F02120B2080E885
:10080000E4F5087590FFC2932097137F14FE120B36
:10081000BE3097FD7F147E00120BBE750801209636
:10082000147F147E00120BBE3096FD7F147E0012E2
:100830000BBE7508052095147F147E00120BBE3088
:1008400095FD7F147E00120BBE7508092094147F5D
:10085000147E00120BBE3094FD7F147E00120BBE7E
:1008600075080D7590FFC2922097147F147E0012B8
:100870000BBE3097FD7F147E00120BBE7508022060
:1008800096147F147E00120BBE3096FD7F147E00FE
:10089000120BBE7508062095147F147E00120BBE45
:1008A0003095FD7F147E00120BBE75080A2094144B
:1008B0007F147E00120BBE3094FD7F147E00120B5D
:1008C000BE75080E7590FFC2912097147F147E00AC
:1008D000120BBE3097FD7F147E00120BBE7508030D
:1008E0002096147F147E00120BBE3096FD7F147E7E
:1008F00000120BBE7508072095147F147E00120BA2
:10090000BE3095FD7F147E00120BBE75080B20943F
:10091000147F147E00120BBE3094FD7F147E0012F3
:100920000BBE75080F7590FFC2902097147F147E40
:1009300000120BBE3097FD7F147E00120BBE7508AF
:10094000042096147F147E00120BBE3096FD7F1497
:100950007E00120BBE7508082095147F147E0012CD
:100960000BBE3095FD7F147E00120BBE75080C2067
:1009700094147F147E00120BBE3094FD7F147E0011
:08098000120BBE750810AF0850
:01098800224C
:10098900BB010CE58229F582E5833AF583E0225023
:1009990006E92582F8E622BBFE06E92582F8E2226D
:0D09A900E58229F582E5833AF583E4932287
:1009B600EF8DF0A4A8F0CF8CF0A428CE8DF0A42E55
:0209C600FE220F
:1009C800BC000BBE0029EF8DF084FFADF022E4CC13
:1009D800F875F008EF2FFFEE33FEEC33FCEE9DECDC
:1009E800984005FCEE9DFE0FD5F0E9E4CEFD22ED22
:1009F800F8F5F0EE8420D21CFEADF075F008EF2F6C
:100A0800FFED33FD4007985006D5F0F222C398FD5C
:050A18000FD5F0EA22F9
:00000001FF
